{"abi":[{"type":"function","name":"Hashtag_list","inputs":[{"name":"","type":"uint256","internalType":"uint256"}],"outputs":[{"name":"","type":"address","internalType":"address"}],"stateMutability":"view"},{"type":"function","name":"Txt_Hashtag_map","inputs":[{"name":"","type":"address","internalType":"address"}],"outputs":[{"name":"exists","type":"bool","internalType":"bool"}],"stateMutability":"view"},{"type":"function","name":"Txt_list","inputs":[{"name":"","type":"uint256","internalType":"uint256"}],"outputs":[{"name":"","type":"address","internalType":"address"}],"stateMutability":"view"},{"type":"function","name":"UserInfoList","inputs":[{"name":"","type":"uint256","internalType":"uint256"}],"outputs":[{"name":"","type":"address","internalType":"address"}],"stateMutability":"view"},{"type":"function","name":"UserInfoListLength","inputs":[],"outputs":[{"name":"","type":"uint256","internalType":"uint256"}],"stateMutability":"view"},{"type":"function","name":"get_Hashtag_N","inputs":[{"name":"index","type":"uint256","internalType":"uint256"}],"outputs":[{"name":"","type":"tuple","internalType":"struct Hashtag_contract.HashtagData","components":[{"name":"self","type":"address","internalType":"address"},{"name":"timestamp","type":"uint256","internalType":"uint256"},{"name":"sender","type":"address","internalType":"address"},{"name":"tag","type":"string","internalType":"string"}]}],"stateMutability":"view"},{"type":"function","name":"get_Hashtag_list_length","inputs":[],"outputs":[{"name":"","type":"uint256","internalType":"uint256"}],"stateMutability":"view"},{"type":"function","name":"get_Hashtag_user_N","inputs":[{"name":"user","type":"address","internalType":"address"},{"name":"index","type":"uint256","internalType":"uint256"}],"outputs":[{"name":"","type":"tuple","internalType":"struct Hashtag_contract.HashtagData","components":[{"name":"self","type":"address","internalType":"address"},{"name":"timestamp","type":"uint256","internalType":"uint256"},{"name":"sender","type":"address","internalType":"address"},{"name":"tag","type":"string","internalType":"string"}]}],"stateMutability":"view"},{"type":"function","name":"get_Hashtag_user_length","inputs":[{"name":"user","type":"address","internalType":"address"}],"outputs":[{"name":"","type":"uint256","internalType":"uint256"}],"stateMutability":"view"},{"type":"function","name":"get_Txt_N","inputs":[{"name":"index","type":"uint256","internalType":"uint256"}],"outputs":[{"name":"","type":"tuple","internalType":"struct Txt_contract.TxtData","components":[{"name":"self","type":"address","internalType":"address"},{"name":"timestamp","type":"uint256","internalType":"uint256"},{"name":"sender","type":"address","internalType":"address"},{"name":"message","type":"string","internalType":"string"},{"name":"Hashtag","type":"address","internalType":"address"}]}],"stateMutability":"view"},{"type":"function","name":"get_Txt_list_length","inputs":[],"outputs":[{"name":"","type":"uint256","internalType":"uint256"}],"stateMutability":"view"},{"type":"function","name":"get_Txt_user_N","inputs":[{"name":"user","type":"address","internalType":"address"},{"name":"index","type":"uint256","internalType":"uint256"}],"outputs":[{"name":"","type":"tuple","internalType":"struct Txt_contract.TxtData","components":[{"name":"self","type":"address","internalType":"address"},{"name":"timestamp","type":"uint256","internalType":"uint256"},{"name":"sender","type":"address","internalType":"address"},{"name":"message","type":"string","internalType":"string"},{"name":"Hashtag","type":"address","internalType":"address"}]}],"stateMutability":"view"},{"type":"function","name":"get_Txt_user_length","inputs":[{"name":"user","type":"address","internalType":"address"}],"outputs":[{"name":"","type":"uint256","internalType":"uint256"}],"stateMutability":"view"},{"type":"function","name":"get_first_Hashtag_N","inputs":[{"name":"count","type":"uint256","internalType":"uint256"},{"name":"offset","type":"uint256","internalType":"uint256"}],"outputs":[{"name":"","type":"tuple[]","internalType":"struct Hashtag_contract.HashtagData[]","components":[{"name":"self","type":"address","internalType":"address"},{"name":"timestamp","type":"uint256","internalType":"uint256"},{"name":"sender","type":"address","internalType":"address"},{"name":"tag","type":"string","internalType":"string"}]}],"stateMutability":"view"},{"type":"function","name":"get_first_Txt_N","inputs":[{"name":"count","type":"uint256","internalType":"uint256"},{"name":"offset","type":"uint256","internalType":"uint256"}],"outputs":[{"name":"","type":"tuple[]","internalType":"struct Txt_contract.TxtData[]","components":[{"name":"self","type":"address","internalType":"address"},{"name":"timestamp","type":"uint256","internalType":"uint256"},{"name":"sender","type":"address","internalType":"address"},{"name":"message","type":"string","internalType":"string"},{"name":"Hashtag","type":"address","internalType":"address"}]}],"stateMutability":"view"},{"type":"function","name":"get_last_Hashtag_N","inputs":[{"name":"count","type":"uint256","internalType":"uint256"},{"name":"offset","type":"uint256","internalType":"uint256"}],"outputs":[{"name":"","type":"tuple[]","internalType":"struct Hashtag_contract.HashtagData[]","components":[{"name":"self","type":"address","internalType":"address"},{"name":"timestamp","type":"uint256","internalType":"uint256"},{"name":"sender","type":"address","internalType":"address"},{"name":"tag","type":"string","internalType":"string"}]}],"stateMutability":"view"},{"type":"function","name":"get_last_Hashtag_user_N","inputs":[{"name":"user","type":"address","internalType":"address"},{"name":"count","type":"uint256","internalType":"uint256"},{"name":"offset","type":"uint256","internalType":"uint256"}],"outputs":[{"name":"","type":"tuple[]","internalType":"struct Hashtag_contract.HashtagData[]","components":[{"name":"self","type":"address","internalType":"address"},{"name":"timestamp","type":"uint256","internalType":"uint256"},{"name":"sender","type":"address","internalType":"address"},{"name":"tag","type":"string","internalType":"string"}]}],"stateMutability":"view"},{"type":"function","name":"get_last_Txt_Hashtag_map_N","inputs":[{"name":"hash","type":"address","internalType":"address"},{"name":"count","type":"uint256","internalType":"uint256"},{"name":"offset","type":"uint256","internalType":"uint256"}],"outputs":[{"name":"","type":"tuple[]","internalType":"struct Txt_contract.TxtData[]","components":[{"name":"self","type":"address","internalType":"address"},{"name":"timestamp","type":"uint256","internalType":"uint256"},{"name":"sender","type":"address","internalType":"address"},{"name":"message","type":"string","internalType":"string"},{"name":"Hashtag","type":"address","internalType":"address"}]}],"stateMutability":"view"},{"type":"function","name":"get_last_Txt_N","inputs":[{"name":"count","type":"uint256","internalType":"uint256"},{"name":"offset","type":"uint256","internalType":"uint256"}],"outputs":[{"name":"","type":"tuple[]","internalType":"struct Txt_contract.TxtData[]","components":[{"name":"self","type":"address","internalType":"address"},{"name":"timestamp","type":"uint256","internalType":"uint256"},{"name":"sender","type":"address","internalType":"address"},{"name":"message","type":"string","internalType":"string"},{"name":"Hashtag","type":"address","internalType":"address"}]}],"stateMutability":"view"},{"type":"function","name":"get_last_Txt_user_N","inputs":[{"name":"user","type":"address","internalType":"address"},{"name":"count","type":"uint256","internalType":"uint256"},{"name":"offset","type":"uint256","internalType":"uint256"}],"outputs":[{"name":"","type":"tuple[]","internalType":"struct Txt_contract.TxtData[]","components":[{"name":"self","type":"address","internalType":"address"},{"name":"timestamp","type":"uint256","internalType":"uint256"},{"name":"sender","type":"address","internalType":"address"},{"name":"message","type":"string","internalType":"string"},{"name":"Hashtag","type":"address","internalType":"address"}]}],"stateMutability":"view"},{"type":"function","name":"get_length_Txt_Hashtag_map","inputs":[{"name":"hash","type":"address","internalType":"address"}],"outputs":[{"name":"","type":"uint256","internalType":"uint256"}],"stateMutability":"view"},{"type":"function","name":"get_unique_map_Hashtag","inputs":[{"name":"tag","type":"string","internalType":"string"}],"outputs":[{"name":"","type":"address","internalType":"address"}],"stateMutability":"view"},{"type":"function","name":"new_Hashtag","inputs":[{"name":"tag","type":"string","internalType":"string"}],"outputs":[{"name":"","type":"address","internalType":"address"}],"stateMutability":"nonpayable"},{"type":"function","name":"new_Txt","inputs":[{"name":"message","type":"string","internalType":"string"},{"name":"Hashtag","type":"address","internalType":"address"}],"outputs":[{"name":"","type":"address","internalType":"address"}],"stateMutability":"nonpayable"},{"type":"function","name":"user_map","inputs":[{"name":"","type":"address","internalType":"address"}],"outputs":[{"name":"owner","type":"address","internalType":"address"},{"name":"exists","type":"bool","internalType":"bool"},{"name":"Txt_list_length","type":"uint256","internalType":"uint256"},{"name":"Hashtag_list_length","type":"uint256","internalType":"uint256"}],"stateMutability":"view"},{"type":"event","name":"NewHashtag","inputs":[{"name":"sender","type":"address","indexed":true,"internalType":"address"},{"name":"contractAddress","type":"address","indexed":true,"internalType":"address"}],"anonymous":false},{"type":"event","name":"NewTxt","inputs":[{"name":"sender","type":"address","indexed":true,"internalType":"address"},{"name":"contractAddress","type":"address","indexed":true,"internalType":"address"}],"anonymous":false}],"bytecode":{"object":"0x6080604052348015600e575f5ffd5b50614c3c8061001c5f395ff3fe608060405234801561000f575f5ffd5b5060043610610171575f3560e01c80638e62a3b3116100dc578063bd72aa2c11610095578063dc33b0041161006f578063dc33b0041461052f578063e7b4be9b14610562578063edb79ea714610592578063fef9bbef146105c257610171565b8063bd72aa2c1461049f578063cc182932146104cf578063d6e129e4146104ff57610171565b80638e62a3b3146103915780639112bf09146103c1578063a4a26c10146103f1578063a870061e14610421578063a8a4887914610451578063b08e177c1461046f57610171565b80635cfad9611161012e5780635cfad9611461028357806365ae0161146102b35780636bcc41ab146102e35780637436fd4e1461031357806376105b261461033157806388ed6cf41461036157610171565b8063156568a0146101755780631b29ee1a146101a5578063293a0562146101d55780634635cad21461020557806352296a5114610223578063568a3d9e14610253575b5f5ffd5b61018f600480360381019061018a9190612817565b6105f2565b60405161019c919061285a565b60405180910390f35b6101bf60048036038101906101ba9190612817565b61063e565b6040516101cc919061285a565b60405180910390f35b6101ef60048036038101906101ea919061289d565b61068a565b6040516101fc91906128d7565b60405180910390f35b61020d6106c5565b60405161021a919061285a565b60405180910390f35b61023d600480360381019061023891906128f0565b6106d1565b60405161024a9190612ad7565b60405180910390f35b61026d6004803603810190610268919061289d565b610876565b60405161027a9190612b57565b60405180910390f35b61029d60048036038101906102989190612b77565b610930565b6040516102aa9190612cf5565b60405180910390f35b6102cd60048036038101906102c8919061289d565b610b20565b6040516102da91906128d7565b60405180910390f35b6102fd60048036038101906102f891906128f0565b610b5b565b60405161030a9190612ad7565b60405180910390f35b61031b610d26565b604051610328919061285a565b60405180910390f35b61034b6004803603810190610346919061289d565b610d2c565b60405161035891906128d7565b60405180910390f35b61037b60048036038101906103769190612b77565b610d66565b6040516103889190612ad7565b60405180910390f35b6103ab60048036038101906103a69190612d15565b610fec565b6040516103b89190612b57565b60405180910390f35b6103db60048036038101906103d69190612d15565b6110e5565b6040516103e89190612dc6565b60405180910390f35b61040b6004803603810190610406919061289d565b6111de565b6040516104189190612dc6565b60405180910390f35b61043b60048036038101906104369190612b77565b611297565b6040516104489190612cf5565b60405180910390f35b61045961151d565b604051610466919061285a565b60405180910390f35b61048960048036038101906104849190612f12565b611528565b60405161049691906128d7565b60405180910390f35b6104b960048036038101906104b49190612f6c565b6119d4565b6040516104c691906128d7565b60405180910390f35b6104e960048036038101906104e491906128f0565b611a38565b6040516104f69190612cf5565b60405180910390f35b61051960048036038101906105149190612817565b611bdb565b604051610526919061285a565b60405180910390f35b61054960048036038101906105449190612817565b611c27565b6040516105599493929190612fcd565b60405180910390f35b61057c600480360381019061057791906128f0565b611c7e565b6040516105899190612cf5565b60405180910390f35b6105ac60048036038101906105a79190612817565b611e46565b6040516105b99190613010565b60405180910390f35b6105dc60048036038101906105d79190612f6c565b611e6c565b6040516105e991906128d7565b60405180910390f35b5f60035f8373ffffffffffffffffffffffffffffffffffffffff1673ffffffffffffffffffffffffffffffffffffffff1681526020019081526020015f20600101805490509050919050565b5f60025f8373ffffffffffffffffffffffffffffffffffffffff1673ffffffffffffffffffffffffffffffffffffffff1681526020019081526020015f20600101805490509050919050565b60048181548110610699575f80fd5b905f5260205f20015f915054906101000a900473ffffffffffffffffffffffffffffffffffffffff1681565b5f600180549050905090565b606060018054905083836106e59190613056565b1115610726576040517f08c379a000000000000000000000000000000000000000000000000000000000815260040161071d906130e3565b60405180910390fd5b5f8367ffffffffffffffff81111561074157610740612dee565b5b60405190808252806020026020018201604052801561077a57816020015b6107676125cd565b81526020019060019003908161075f5790505b5090505f5f90505b8481101561086b57600184826107989190613056565b815481106107a9576107a8613101565b5b905f5260205f20015f9054906101000a900473ffffffffffffffffffffffffffffffffffffffff1673ffffffffffffffffffffffffffffffffffffffff166353ed51436040518163ffffffff1660e01b81526004015f60405180830381865afa158015610818573d5f5f3e3d5ffd5b505050506040513d5f823e3d601f19601f82011682018060405250810190610840919061325d565b82828151811061085357610852613101565b5b60200260200101819052508080600101915050610782565b508091505092915050565b61087e6125cd565b6001828154811061089257610891613101565b5b905f5260205f20015f9054906101000a900473ffffffffffffffffffffffffffffffffffffffff1673ffffffffffffffffffffffffffffffffffffffff166353ed51436040518163ffffffff1660e01b81526004015f60405180830381865afa158015610901573d5f5f3e3d5ffd5b505050506040513d5f823e3d601f19601f82011682018060405250810190610929919061325d565b9050919050565b60605f8367ffffffffffffffff81111561094d5761094c612dee565b5b60405190808252806020026020018201604052801561098657816020015b61097361261e565b81526020019060019003908161096b5790505b5090505f5f90505b84811015610b14575f60025f8873ffffffffffffffffffffffffffffffffffffffff1673ffffffffffffffffffffffffffffffffffffffff1681526020019081526020015f206001016001868460025f8c73ffffffffffffffffffffffffffffffffffffffff1673ffffffffffffffffffffffffffffffffffffffff1681526020019081526020015f2060010180549050610a2991906132a4565b610a3391906132a4565b610a3d91906132a4565b81548110610a4e57610a4d613101565b5b905f5260205f20015f9054906101000a900473ffffffffffffffffffffffffffffffffffffffff1690508073ffffffffffffffffffffffffffffffffffffffff166353ed51436040518163ffffffff1660e01b81526004015f60405180830381865afa158015610ac0573d5f5f3e3d5ffd5b505050506040513d5f823e3d601f19601f82011682018060405250810190610ae8919061337c565b838381518110610afb57610afa613101565b5b602002602001018190525050808060010191505061098e565b50809150509392505050565b60018181548110610b2f575f80fd5b905f5260205f20015f915054906101000a900473ffffffffffffffffffffffffffffffffffffffff1681565b60606001805490508284610b6f9190613056565b1115610bb0576040517f08c379a0000000000000000000000000000000000000000000000000000000008152600401610ba79061340d565b60405180910390fd5b5f8367ffffffffffffffff811115610bcb57610bca612dee565b5b604051908082528060200260200182016040528015610c0457816020015b610bf16125cd565b815260200190600190039081610be95790505b5090505f60018054905090505f5f90505b85811015610d1a575f6001868385610c2d91906132a4565b610c3791906132a4565b610c4191906132a4565b905060018181548110610c5757610c56613101565b5b905f5260205f20015f9054906101000a900473ffffffffffffffffffffffffffffffffffffffff1673ffffffffffffffffffffffffffffffffffffffff166353ed51436040518163ffffffff1660e01b81526004015f60405180830381865afa158015610cc6573d5f5f3e3d5ffd5b505050506040513d5f823e3d601f19601f82011682018060405250810190610cee919061325d565b848381518110610d0157610d00613101565b5b6020026020010181905250508080600101915050610c15565b50819250505092915050565b60055481565b5f8181548110610d3a575f80fd5b905f5260205f20015f915054906101000a900473ffffffffffffffffffffffffffffffffffffffff1681565b606060035f8573ffffffffffffffffffffffffffffffffffffffff1673ffffffffffffffffffffffffffffffffffffffff1681526020019081526020015f20600301805490508284610db89190613056565b1115610df9576040517f08c379a0000000000000000000000000000000000000000000000000000000008152600401610df09061340d565b60405180910390fd5b5f8367ffffffffffffffff811115610e1457610e13612dee565b5b604051908082528060200260200182016040528015610e4d57816020015b610e3a6125cd565b815260200190600190039081610e325790505b5090505f60035f8773ffffffffffffffffffffffffffffffffffffffff1673ffffffffffffffffffffffffffffffffffffffff1681526020019081526020015f206003018054905090505f5f90505b85811015610fdf575f6001868385610eb491906132a4565b610ebe91906132a4565b610ec891906132a4565b905060035f8973ffffffffffffffffffffffffffffffffffffffff1673ffffffffffffffffffffffffffffffffffffffff1681526020019081526020015f206003018181548110610f1c57610f1b613101565b5b905f5260205f20015f9054906101000a900473ffffffffffffffffffffffffffffffffffffffff1673ffffffffffffffffffffffffffffffffffffffff166353ed51436040518163ffffffff1660e01b81526004015f60405180830381865afa158015610f8b573d5f5f3e3d5ffd5b505050506040513d5f823e3d601f19601f82011682018060405250810190610fb3919061325d565b848381518110610fc657610fc5613101565b5b6020026020010181905250508080600101915050610e9c565b5081925050509392505050565b610ff46125cd565b60035f8473ffffffffffffffffffffffffffffffffffffffff1673ffffffffffffffffffffffffffffffffffffffff1681526020019081526020015f20600301828154811061104657611045613101565b5b905f5260205f20015f9054906101000a900473ffffffffffffffffffffffffffffffffffffffff1673ffffffffffffffffffffffffffffffffffffffff166353ed51436040518163ffffffff1660e01b81526004015f60405180830381865afa1580156110b5573d5f5f3e3d5ffd5b505050506040513d5f823e3d601f19601f820116820180604052508101906110dd919061325d565b905092915050565b6110ed61261e565b60035f8473ffffffffffffffffffffffffffffffffffffffff1673ffffffffffffffffffffffffffffffffffffffff1681526020019081526020015f20600101828154811061113f5761113e613101565b5b905f5260205f20015f9054906101000a900473ffffffffffffffffffffffffffffffffffffffff1673ffffffffffffffffffffffffffffffffffffffff166353ed51436040518163ffffffff1660e01b81526004015f60405180830381865afa1580156111ae573d5f5f3e3d5ffd5b505050506040513d5f823e3d601f19601f820116820180604052508101906111d6919061337c565b905092915050565b6111e661261e565b5f82815481106111f9576111f8613101565b5b905f5260205f20015f9054906101000a900473ffffffffffffffffffffffffffffffffffffffff1673ffffffffffffffffffffffffffffffffffffffff166353ed51436040518163ffffffff1660e01b81526004015f60405180830381865afa158015611268573d5f5f3e3d5ffd5b505050506040513d5f823e3d601f19601f82011682018060405250810190611290919061337c565b9050919050565b606060035f8573ffffffffffffffffffffffffffffffffffffffff1673ffffffffffffffffffffffffffffffffffffffff1681526020019081526020015f206001018054905082846112e99190613056565b111561132a576040517f08c379a00000000000000000000000000000000000000000000000000000000081526004016113219061340d565b60405180910390fd5b5f8367ffffffffffffffff81111561134557611344612dee565b5b60405190808252806020026020018201604052801561137e57816020015b61136b61261e565b8152602001906001900390816113635790505b5090505f60035f8773ffffffffffffffffffffffffffffffffffffffff1673ffffffffffffffffffffffffffffffffffffffff1681526020019081526020015f206001018054905090505f5f90505b85811015611510575f60018683856113e591906132a4565b6113ef91906132a4565b6113f991906132a4565b905060035f8973ffffffffffffffffffffffffffffffffffffffff1673ffffffffffffffffffffffffffffffffffffffff1681526020019081526020015f20600101818154811061144d5761144c613101565b5b905f5260205f20015f9054906101000a900473ffffffffffffffffffffffffffffffffffffffff1673ffffffffffffffffffffffffffffffffffffffff166353ed51436040518163ffffffff1660e01b81526004015f60405180830381865afa1580156114bc573d5f5f3e3d5ffd5b505050506040513d5f823e3d601f19601f820116820180604052508101906114e4919061337c565b8483815181106114f7576114f6613101565b5b60200260200101819052505080806001019150506113cd565b5081925050509392505050565b5f5f80549050905090565b5f5f83836040516115389061268b565b611543929190613463565b604051809103905ff08015801561155c573d5f5f3e3d5ffd5b50905060025f8473ffffffffffffffffffffffffffffffffffffffff1673ffffffffffffffffffffffffffffffffffffffff1681526020019081526020015f205f015f9054906101000a900460ff16611632576115b76122bd565b60025f8573ffffffffffffffffffffffffffffffffffffffff1673ffffffffffffffffffffffffffffffffffffffff1681526020019081526020015f205f820151815f015f6101000a81548160ff021916908315150217905550602082015181600101908051906020019061162d929190612698565b509050505b60025f8473ffffffffffffffffffffffffffffffffffffffff1673ffffffffffffffffffffffffffffffffffffffff1681526020019081526020015f2060010181908060018154018082558091505060019003905f5260205f20015f9091909190916101000a81548173ffffffffffffffffffffffffffffffffffffffff021916908373ffffffffffffffffffffffffffffffffffffffff16021790555060035f3273ffffffffffffffffffffffffffffffffffffffff1673ffffffffffffffffffffffffffffffffffffffff1681526020019081526020015f205f0160149054906101000a900460ff1661181c5761172a8161232f565b60035f3273ffffffffffffffffffffffffffffffffffffffff1673ffffffffffffffffffffffffffffffffffffffff1681526020019081526020015f205f820151815f015f6101000a81548173ffffffffffffffffffffffffffffffffffffffff021916908373ffffffffffffffffffffffffffffffffffffffff1602179055506020820151815f0160146101000a81548160ff02191690831515021790555060408201518160010190805190602001906117e6929190612698565b5060608201518160020155608082015181600301908051906020019061180d929190612698565b5060a082015181600401559050505b60035f3273ffffffffffffffffffffffffffffffffffffffff1673ffffffffffffffffffffffffffffffffffffffff1681526020019081526020015f2060010181908060018154018082558091505060019003905f5260205f20015f9091909190916101000a81548173ffffffffffffffffffffffffffffffffffffffff021916908373ffffffffffffffffffffffffffffffffffffffff160217905550600160035f3273ffffffffffffffffffffffffffffffffffffffff1673ffffffffffffffffffffffffffffffffffffffff1681526020019081526020015f206002015f82825461190a9190613056565b925050819055505f81908060018154018082558091505060019003905f5260205f20015f9091909190916101000a81548173ffffffffffffffffffffffffffffffffffffffff021916908373ffffffffffffffffffffffffffffffffffffffff1602179055508073ffffffffffffffffffffffffffffffffffffffff163273ffffffffffffffffffffffffffffffffffffffff167f94b3c87fea2a5a24934a9a2500c0453b7e876fa251589212f1b34b10b8d2ee3960405160405180910390a38091505092915050565b5f5f826040516020016119e791906134cb565b60405160208183030381529060405280519060200120905060065f8281526020019081526020015f205f9054906101000a900473ffffffffffffffffffffffffffffffffffffffff16915050919050565b60605f805490508383611a4b9190613056565b1115611a8c576040517f08c379a0000000000000000000000000000000000000000000000000000000008152600401611a83906130e3565b60405180910390fd5b5f8367ffffffffffffffff811115611aa757611aa6612dee565b5b604051908082528060200260200182016040528015611ae057816020015b611acd61261e565b815260200190600190039081611ac55790505b5090505f5f90505b84811015611bd0575f8482611afd9190613056565b81548110611b0e57611b0d613101565b5b905f5260205f20015f9054906101000a900473ffffffffffffffffffffffffffffffffffffffff1673ffffffffffffffffffffffffffffffffffffffff166353ed51436040518163ffffffff1660e01b81526004015f60405180830381865afa158015611b7d573d5f5f3e3d5ffd5b505050506040513d5f823e3d601f19601f82011682018060405250810190611ba5919061337c565b828281518110611bb857611bb7613101565b5b60200260200101819052508080600101915050611ae8565b508091505092915050565b5f60035f8373ffffffffffffffffffffffffffffffffffffffff1673ffffffffffffffffffffffffffffffffffffffff1681526020019081526020015f20600301805490509050919050565b6003602052805f5260405f205f91509050805f015f9054906101000a900473ffffffffffffffffffffffffffffffffffffffff1690805f0160149054906101000a900460ff16908060020154908060040154905084565b60605f805490508284611c919190613056565b1115611cd2576040517f08c379a0000000000000000000000000000000000000000000000000000000008152600401611cc99061340d565b60405180910390fd5b5f8367ffffffffffffffff811115611ced57611cec612dee565b5b604051908082528060200260200182016040528015611d2657816020015b611d1361261e565b815260200190600190039081611d0b5790505b5090505f5f8054905090505f5f90505b85811015611e3a575f6001868385611d4e91906132a4565b611d5891906132a4565b611d6291906132a4565b90505f8181548110611d7757611d76613101565b5b905f5260205f20015f9054906101000a900473ffffffffffffffffffffffffffffffffffffffff1673ffffffffffffffffffffffffffffffffffffffff166353ed51436040518163ffffffff1660e01b81526004015f60405180830381865afa158015611de6573d5f5f3e3d5ffd5b505050506040513d5f823e3d601f19601f82011682018060405250810190611e0e919061337c565b848381518110611e2157611e20613101565b5b6020026020010181905250508080600101915050611d36565b50819250505092915050565b6002602052805f5260405f205f91509050805f015f9054906101000a900460ff16905081565b5f5f82604051602001611e7f91906134cb565b6040516020818303038152906040528051906020012090505f73ffffffffffffffffffffffffffffffffffffffff1660065f8381526020019081526020015f205f9054906101000a900473ffffffffffffffffffffffffffffffffffffffff1673ffffffffffffffffffffffffffffffffffffffff1614611f35576040517f08c379a0000000000000000000000000000000000000000000000000000000008152600401611f2c90613551565b60405180910390fd5b5f83604051611f439061271f565b611f4d919061356f565b604051809103905ff080158015611f66573d5f5f3e3d5ffd5b5090508060065f8481526020019081526020015f205f6101000a81548173ffffffffffffffffffffffffffffffffffffffff021916908373ffffffffffffffffffffffffffffffffffffffff16021790555060035f3273ffffffffffffffffffffffffffffffffffffffff1673ffffffffffffffffffffffffffffffffffffffff1681526020019081526020015f205f0160149054906101000a900460ff16612104576120128161247e565b60035f3273ffffffffffffffffffffffffffffffffffffffff1673ffffffffffffffffffffffffffffffffffffffff1681526020019081526020015f205f820151815f015f6101000a81548173ffffffffffffffffffffffffffffffffffffffff021916908373ffffffffffffffffffffffffffffffffffffffff1602179055506020820151815f0160146101000a81548160ff02191690831515021790555060408201518160010190805190602001906120ce929190612698565b506060820151816002015560808201518160030190805190602001906120f5929190612698565b5060a082015181600401559050505b60035f3273ffffffffffffffffffffffffffffffffffffffff1673ffffffffffffffffffffffffffffffffffffffff1681526020019081526020015f2060030181908060018154018082558091505060019003905f5260205f20015f9091909190916101000a81548173ffffffffffffffffffffffffffffffffffffffff021916908373ffffffffffffffffffffffffffffffffffffffff160217905550600160035f3273ffffffffffffffffffffffffffffffffffffffff1673ffffffffffffffffffffffffffffffffffffffff1681526020019081526020015f206004015f8282546121f29190613056565b92505081905550600181908060018154018082558091505060019003905f5260205f20015f9091909190916101000a81548173ffffffffffffffffffffffffffffffffffffffff021916908373ffffffffffffffffffffffffffffffffffffffff1602179055508073ffffffffffffffffffffffffffffffffffffffff163273ffffffffffffffffffffffffffffffffffffffff167f463c64ec3ec9ac5f76f39aaf6a808155325a650c1678f84eb2a6b1bff1ba912560405160405180910390a38092505050919050565b6122c561272c565b5f5f67ffffffffffffffff8111156122e0576122df612dee565b5b60405190808252806020026020018201604052801561230e5781602001602082028036833780820191505090505b50905060405180604001604052806001151581526020018281525091505090565b612337612747565b5f5f67ffffffffffffffff81111561235257612351612dee565b5b6040519080825280602002602001820160405280156123805781602001602082028036833780820191505090505b5090505f5f67ffffffffffffffff81111561239e5761239d612dee565b5b6040519080825280602002602001820160405280156123cc5781602001602082028036833780820191505090505b509050600484908060018154018082558091505060019003905f5260205f20015f9091909190916101000a81548173ffffffffffffffffffffffffffffffffffffffff021916908373ffffffffffffffffffffffffffffffffffffffff1602179055506040518060c001604052808573ffffffffffffffffffffffffffffffffffffffff1681526020016001151581526020018381526020015f81526020018281526020015f81525092505050919050565b612486612747565b5f5f67ffffffffffffffff8111156124a1576124a0612dee565b5b6040519080825280602002602001820160405280156124cf5781602001602082028036833780820191505090505b5090505f5f67ffffffffffffffff8111156124ed576124ec612dee565b5b60405190808252806020026020018201604052801561251b5781602001602082028036833780820191505090505b509050600484908060018154018082558091505060019003905f5260205f20015f9091909190916101000a81548173ffffffffffffffffffffffffffffffffffffffff021916908373ffffffffffffffffffffffffffffffffffffffff1602179055506040518060c001604052808573ffffffffffffffffffffffffffffffffffffffff1681526020016001151581526020018381526020015f81526020018281526020015f81525092505050919050565b60405180608001604052805f73ffffffffffffffffffffffffffffffffffffffff1681526020015f81526020015f73ffffffffffffffffffffffffffffffffffffffff168152602001606081525090565b6040518060a001604052805f73ffffffffffffffffffffffffffffffffffffffff1681526020015f81526020015f73ffffffffffffffffffffffffffffffffffffffff168152602001606081526020015f73ffffffffffffffffffffffffffffffffffffffff1681525090565b610c078061359083390190565b828054828255905f5260205f2090810192821561270e579160200282015b8281111561270d578251825f6101000a81548173ffffffffffffffffffffffffffffffffffffffff021916908373ffffffffffffffffffffffffffffffffffffffff160217905550916020019190600101906126b6565b5b50905061271b9190612791565b5090565b610a708061419783390190565b60405180604001604052805f15158152602001606081525090565b6040518060c001604052805f73ffffffffffffffffffffffffffffffffffffffff1681526020015f15158152602001606081526020015f8152602001606081526020015f81525090565b5b808211156127a8575f815f905550600101612792565b5090565b5f604051905090565b5f5ffd5b5f5ffd5b5f73ffffffffffffffffffffffffffffffffffffffff82169050919050565b5f6127e6826127bd565b9050919050565b6127f6816127dc565b8114612800575f5ffd5b50565b5f81359050612811816127ed565b92915050565b5f6020828403121561282c5761282b6127b5565b5b5f61283984828501612803565b91505092915050565b5f819050919050565b61285481612842565b82525050565b5f60208201905061286d5f83018461284b565b92915050565b61287c81612842565b8114612886575f5ffd5b50565b5f8135905061289781612873565b92915050565b5f602082840312156128b2576128b16127b5565b5b5f6128bf84828501612889565b91505092915050565b6128d1816127dc565b82525050565b5f6020820190506128ea5f8301846128c8565b92915050565b5f5f60408385031215612906576129056127b5565b5b5f61291385828601612889565b925050602061292485828601612889565b9150509250929050565b5f81519050919050565b5f82825260208201905092915050565b5f819050602082019050919050565b612960816127dc565b82525050565b61296f81612842565b82525050565b5f81519050919050565b5f82825260208201905092915050565b8281835e5f83830152505050565b5f601f19601f8301169050919050565b5f6129b782612975565b6129c1818561297f565b93506129d181856020860161298f565b6129da8161299d565b840191505092915050565b5f608083015f8301516129fa5f860182612957565b506020830151612a0d6020860182612966565b506040830151612a206040860182612957565b5060608301518482036060860152612a3882826129ad565b9150508091505092915050565b5f612a5083836129e5565b905092915050565b5f602082019050919050565b5f612a6e8261292e565b612a788185612938565b935083602082028501612a8a85612948565b805f5b85811015612ac55784840389528151612aa68582612a45565b9450612ab183612a58565b925060208a01995050600181019050612a8d565b50829750879550505050505092915050565b5f6020820190508181035f830152612aef8184612a64565b905092915050565b5f608083015f830151612b0c5f860182612957565b506020830151612b1f6020860182612966565b506040830151612b326040860182612957565b5060608301518482036060860152612b4a82826129ad565b9150508091505092915050565b5f6020820190508181035f830152612b6f8184612af7565b905092915050565b5f5f5f60608486031215612b8e57612b8d6127b5565b5b5f612b9b86828701612803565b9350506020612bac86828701612889565b9250506040612bbd86828701612889565b9150509250925092565b5f81519050919050565b5f82825260208201905092915050565b5f819050602082019050919050565b5f60a083015f830151612c055f860182612957565b506020830151612c186020860182612966565b506040830151612c2b6040860182612957565b5060608301518482036060860152612c4382826129ad565b9150506080830151612c586080860182612957565b508091505092915050565b5f612c6e8383612bf0565b905092915050565b5f602082019050919050565b5f612c8c82612bc7565b612c968185612bd1565b935083602082028501612ca885612be1565b805f5b85811015612ce35784840389528151612cc48582612c63565b9450612ccf83612c76565b925060208a01995050600181019050612cab565b50829750879550505050505092915050565b5f6020820190508181035f830152612d0d8184612c82565b905092915050565b5f5f60408385031215612d2b57612d2a6127b5565b5b5f612d3885828601612803565b9250506020612d4985828601612889565b9150509250929050565b5f60a083015f830151612d685f860182612957565b506020830151612d7b6020860182612966565b506040830151612d8e6040860182612957565b5060608301518482036060860152612da682826129ad565b9150506080830151612dbb6080860182612957565b508091505092915050565b5f6020820190508181035f830152612dde8184612d53565b905092915050565b5f5ffd5b5f5ffd5b7f4e487b71000000000000000000000000000000000000000000000000000000005f52604160045260245ffd5b612e248261299d565b810181811067ffffffffffffffff82111715612e4357612e42612dee565b5b80604052505050565b5f612e556127ac565b9050612e618282612e1b565b919050565b5f67ffffffffffffffff821115612e8057612e7f612dee565b5b612e898261299d565b9050602081019050919050565b828183375f83830152505050565b5f612eb6612eb184612e66565b612e4c565b905082815260208101848484011115612ed257612ed1612dea565b5b612edd848285612e96565b509392505050565b5f82601f830112612ef957612ef8612de6565b5b8135612f09848260208601612ea4565b91505092915050565b5f5f60408385031215612f2857612f276127b5565b5b5f83013567ffffffffffffffff811115612f4557612f446127b9565b5b612f5185828601612ee5565b9250506020612f6285828601612803565b9150509250929050565b5f60208284031215612f8157612f806127b5565b5b5f82013567ffffffffffffffff811115612f9e57612f9d6127b9565b5b612faa84828501612ee5565b91505092915050565b5f8115159050919050565b612fc781612fb3565b82525050565b5f608082019050612fe05f8301876128c8565b612fed6020830186612fbe565b612ffa604083018561284b565b613007606083018461284b565b95945050505050565b5f6020820190506130235f830184612fbe565b92915050565b7f4e487b71000000000000000000000000000000000000000000000000000000005f52601160045260245ffd5b5f61306082612842565b915061306b83612842565b925082820190508082111561308357613082613029565b5b92915050565b5f82825260208201905092915050565b7f4f6666736574202b20636f756e74206f7574206f6620626f756e6473000000005f82015250565b5f6130cd601c83613089565b91506130d882613099565b602082019050919050565b5f6020820190508181035f8301526130fa816130c1565b9050919050565b7f4e487b71000000000000000000000000000000000000000000000000000000005f52603260045260245ffd5b5f5ffd5b5f5ffd5b5f81519050613144816127ed565b92915050565b5f8151905061315881612873565b92915050565b5f61317061316b84612e66565b612e4c565b90508281526020810184848401111561318c5761318b612dea565b5b61319784828561298f565b509392505050565b5f82601f8301126131b3576131b2612de6565b5b81516131c384826020860161315e565b91505092915050565b5f608082840312156131e1576131e061312e565b5b6131eb6080612e4c565b90505f6131fa84828501613136565b5f83015250602061320d8482850161314a565b602083015250604061322184828501613136565b604083015250606082015167ffffffffffffffff81111561324557613244613132565b5b6132518482850161319f565b60608301525092915050565b5f60208284031215613272576132716127b5565b5b5f82015167ffffffffffffffff81111561328f5761328e6127b9565b5b61329b848285016131cc565b91505092915050565b5f6132ae82612842565b91506132b983612842565b92508282039050818111156132d1576132d0613029565b5b92915050565b5f60a082840312156132ec576132eb61312e565b5b6132f660a0612e4c565b90505f61330584828501613136565b5f8301525060206133188482850161314a565b602083015250604061332c84828501613136565b604083015250606082015167ffffffffffffffff8111156133505761334f613132565b5b61335c8482850161319f565b606083015250608061337084828501613136565b60808301525092915050565b5f60208284031215613391576133906127b5565b5b5f82015167ffffffffffffffff8111156133ae576133ad6127b9565b5b6133ba848285016132d7565b91505092915050565b7f436f756e74202b206f6666736574206f7574206f6620626f756e6473000000005f82015250565b5f6133f7601c83613089565b9150613402826133c3565b602082019050919050565b5f6020820190508181035f830152613424816133eb565b9050919050565b5f61343582612975565b61343f8185613089565b935061344f81856020860161298f565b6134588161299d565b840191505092915050565b5f6040820190508181035f83015261347b818561342b565b905061348a60208301846128c8565b9392505050565b5f81905092915050565b5f6134a582612975565b6134af8185613491565b93506134bf81856020860161298f565b80840191505092915050565b5f6134d6828461349b565b915081905092915050565b7f556e6971756520636f6e73747261696e742076696f6c6174696f6e20666f72205f8201527f7461670000000000000000000000000000000000000000000000000000000000602082015250565b5f61353b602383613089565b9150613546826134e1565b604082019050919050565b5f6020820190508181035f8301526135688161352f565b9050919050565b5f6020820190508181035f830152613587818461342b565b90509291505056fe608060405234801561000f575f5ffd5b50604051610c07380380610c0783398181016040528101906100319190610275565b3260015f6101000a81548173ffffffffffffffffffffffffffffffffffffffff021916908373ffffffffffffffffffffffffffffffffffffffff160217905550425f81905550816002908161008691906104df565b508060045f6101000a81548173ffffffffffffffffffffffffffffffffffffffff021916908373ffffffffffffffffffffffffffffffffffffffff16021790555050506105ae565b5f604051905090565b5f5ffd5b5f5ffd5b5f5ffd5b5f5ffd5b5f601f19601f8301169050919050565b7f4e487b71000000000000000000000000000000000000000000000000000000005f52604160045260245ffd5b61012d826100e7565b810181811067ffffffffffffffff8211171561014c5761014b6100f7565b5b80604052505050565b5f61015e6100ce565b905061016a8282610124565b919050565b5f67ffffffffffffffff821115610189576101886100f7565b5b610192826100e7565b9050602081019050919050565b8281835e5f83830152505050565b5f6101bf6101ba8461016f565b610155565b9050828152602081018484840111156101db576101da6100e3565b5b6101e684828561019f565b509392505050565b5f82601f830112610202576102016100df565b5b81516102128482602086016101ad565b91505092915050565b5f73ffffffffffffffffffffffffffffffffffffffff82169050919050565b5f6102448261021b565b9050919050565b6102548161023a565b811461025e575f5ffd5b50565b5f8151905061026f8161024b565b92915050565b5f5f6040838503121561028b5761028a6100d7565b5b5f83015167ffffffffffffffff8111156102a8576102a76100db565b5b6102b4858286016101ee565b92505060206102c585828601610261565b9150509250929050565b5f81519050919050565b7f4e487b71000000000000000000000000000000000000000000000000000000005f52602260045260245ffd5b5f600282049050600182168061031d57607f821691505b6020821081036103305761032f6102d9565b5b50919050565b5f819050815f5260205f209050919050565b5f6020601f8301049050919050565b5f82821b905092915050565b5f600883026103927fffffffffffffffffffffffffffffffffffffffffffffffffffffffffffffffff82610357565b61039c8683610357565b95508019841693508086168417925050509392505050565b5f819050919050565b5f819050919050565b5f6103e06103db6103d6846103b4565b6103bd565b6103b4565b9050919050565b5f819050919050565b6103f9836103c6565b61040d610405826103e7565b848454610363565b825550505050565b5f5f905090565b610424610415565b61042f8184846103f0565b505050565b5b81811015610452576104475f8261041c565b600181019050610435565b5050565b601f8211156104975761046881610336565b61047184610348565b81016020851015610480578190505b61049461048c85610348565b830182610434565b50505b505050565b5f82821c905092915050565b5f6104b75f198460080261049c565b1980831691505092915050565b5f6104cf83836104a8565b9150826002028217905092915050565b6104e8826102cf565b67ffffffffffffffff811115610501576105006100f7565b5b61050b8254610306565b610516828285610456565b5f60209050601f831160018114610547575f8415610535578287015190505b61053f85826104c4565b8655506105a6565b601f19841661055586610336565b5f5b8281101561057c57848901518255600182019150602085019450602081019050610557565b868310156105995784890151610595601f8916826104a8565b8355505b6001600288020188555050505b505050505050565b61064c806105bb5f395ff3fe608060405234801561000f575f5ffd5b5060043610610060575f3560e01c80633a4b66f1146100645780634c30e4761461008257806353ed5143146100a057806367e404ce146100be578063b80777ea146100dc578063e21f37ce146100fa575b5f5ffd5b61006c610118565b60405161007991906103bf565b60405180910390f35b61008a61011e565b6040516100979190610417565b60405180910390f35b6100a8610143565b6040516100b59190610531565b60405180910390f35b6100c6610284565b6040516100d39190610417565b60405180910390f35b6100e46102a9565b6040516100f191906103bf565b60405180910390f35b6101026102ae565b60405161010f9190610599565b60405180910390f35b60035481565b60045f9054906101000a900473ffffffffffffffffffffffffffffffffffffffff1681565b61014b61033a565b6040518060a001604052803073ffffffffffffffffffffffffffffffffffffffff1681526020015f54815260200160015f9054906101000a900473ffffffffffffffffffffffffffffffffffffffff1673ffffffffffffffffffffffffffffffffffffffff168152602001600280546101c3906105e6565b80601f01602080910402602001604051908101604052809291908181526020018280546101ef906105e6565b801561023a5780601f106102115761010080835404028352916020019161023a565b820191905f5260205f20905b81548152906001019060200180831161021d57829003601f168201915b5050505050815260200160045f9054906101000a900473ffffffffffffffffffffffffffffffffffffffff1673ffffffffffffffffffffffffffffffffffffffff16815250905090565b60015f9054906101000a900473ffffffffffffffffffffffffffffffffffffffff1681565b5f5481565b600280546102bb906105e6565b80601f01602080910402602001604051908101604052809291908181526020018280546102e7906105e6565b80156103325780601f1061030957610100808354040283529160200191610332565b820191905f5260205f20905b81548152906001019060200180831161031557829003601f168201915b505050505081565b6040518060a001604052805f73ffffffffffffffffffffffffffffffffffffffff1681526020015f81526020015f73ffffffffffffffffffffffffffffffffffffffff168152602001606081526020015f73ffffffffffffffffffffffffffffffffffffffff1681525090565b5f819050919050565b6103b9816103a7565b82525050565b5f6020820190506103d25f8301846103b0565b92915050565b5f73ffffffffffffffffffffffffffffffffffffffff82169050919050565b5f610401826103d8565b9050919050565b610411816103f7565b82525050565b5f60208201905061042a5f830184610408565b92915050565b610439816103f7565b82525050565b610448816103a7565b82525050565b5f81519050919050565b5f82825260208201905092915050565b8281835e5f83830152505050565b5f601f19601f8301169050919050565b5f6104908261044e565b61049a8185610458565b93506104aa818560208601610468565b6104b381610476565b840191505092915050565b5f60a083015f8301516104d35f860182610430565b5060208301516104e6602086018261043f565b5060408301516104f96040860182610430565b50606083015184820360608601526105118282610486565b91505060808301516105266080860182610430565b508091505092915050565b5f6020820190508181035f83015261054981846104be565b905092915050565b5f82825260208201905092915050565b5f61056b8261044e565b6105758185610551565b9350610585818560208601610468565b61058e81610476565b840191505092915050565b5f6020820190508181035f8301526105b18184610561565b905092915050565b7f4e487b71000000000000000000000000000000000000000000000000000000005f52602260045260245ffd5b5f60028204905060018216806105fd57607f821691505b6020821081036106105761060f6105b9565b5b5091905056fea264697066735822122073bc8a5a1f26737757fc51e36cbf0feb50cbec77ab137770d6e135a4968b0ebf64736f6c634300081c0033608060405234801561000f575f5ffd5b50604051610a70380380610a70833981810160405281019061003191906101da565b3260015f6101000a81548173ffffffffffffffffffffffffffffffffffffffff021916908373ffffffffffffffffffffffffffffffffffffffff160217905550425f8190555080600290816100869190610431565b5050610500565b5f604051905090565b5f5ffd5b5f5ffd5b5f5ffd5b5f5ffd5b5f601f19601f8301169050919050565b7f4e487b71000000000000000000000000000000000000000000000000000000005f52604160045260245ffd5b6100ec826100a6565b810181811067ffffffffffffffff8211171561010b5761010a6100b6565b5b80604052505050565b5f61011d61008d565b905061012982826100e3565b919050565b5f67ffffffffffffffff821115610148576101476100b6565b5b610151826100a6565b9050602081019050919050565b8281835e5f83830152505050565b5f61017e6101798461012e565b610114565b90508281526020810184848401111561019a576101996100a2565b5b6101a584828561015e565b509392505050565b5f82601f8301126101c1576101c061009e565b5b81516101d184826020860161016c565b91505092915050565b5f602082840312156101ef576101ee610096565b5b5f82015167ffffffffffffffff81111561020c5761020b61009a565b5b610218848285016101ad565b91505092915050565b5f81519050919050565b7f4e487b71000000000000000000000000000000000000000000000000000000005f52602260045260245ffd5b5f600282049050600182168061026f57607f821691505b6020821081036102825761028161022b565b5b50919050565b5f819050815f5260205f209050919050565b5f6020601f8301049050919050565b5f82821b905092915050565b5f600883026102e47fffffffffffffffffffffffffffffffffffffffffffffffffffffffffffffffff826102a9565b6102ee86836102a9565b95508019841693508086168417925050509392505050565b5f819050919050565b5f819050919050565b5f61033261032d61032884610306565b61030f565b610306565b9050919050565b5f819050919050565b61034b83610318565b61035f61035782610339565b8484546102b5565b825550505050565b5f5f905090565b610376610367565b610381818484610342565b505050565b5b818110156103a4576103995f8261036e565b600181019050610387565b5050565b601f8211156103e9576103ba81610288565b6103c38461029a565b810160208510156103d2578190505b6103e66103de8561029a565b830182610386565b50505b505050565b5f82821c905092915050565b5f6104095f19846008026103ee565b1980831691505092915050565b5f61042183836103fa565b9150826002028217905092915050565b61043a82610221565b67ffffffffffffffff811115610453576104526100b6565b5b61045d8254610258565b6104688282856103a8565b5f60209050601f831160018114610499575f8415610487578287015190505b6104918582610416565b8655506104f8565b601f1984166104a786610288565b5f5b828110156104ce578489015182556001820191506020850194506020810190506104a9565b868310156104eb57848901516104e7601f8916826103fa565b8355505b6001600288020188555050505b505050505050565b6105638061050d5f395ff3fe608060405234801561000f575f5ffd5b506004361061004a575f3560e01c806351f910661461004e57806353ed51431461006c57806367e404ce1461008a578063b80777ea146100a8575b5f5ffd5b6100566100c6565b6040516100639190610341565b60405180910390f35b610074610152565b6040516100819190610460565b60405180910390f35b610092610256565b60405161009f919061048f565b60405180910390f35b6100b061027b565b6040516100bd91906104b7565b60405180910390f35b600280546100d3906104fd565b80601f01602080910402602001604051908101604052809291908181526020018280546100ff906104fd565b801561014a5780601f106101215761010080835404028352916020019161014a565b820191905f5260205f20905b81548152906001019060200180831161012d57829003601f168201915b505050505081565b61015a610280565b60405180608001604052803073ffffffffffffffffffffffffffffffffffffffff1681526020015f54815260200160015f9054906101000a900473ffffffffffffffffffffffffffffffffffffffff1673ffffffffffffffffffffffffffffffffffffffff168152602001600280546101d2906104fd565b80601f01602080910402602001604051908101604052809291908181526020018280546101fe906104fd565b80156102495780601f1061022057610100808354040283529160200191610249565b820191905f5260205f20905b81548152906001019060200180831161022c57829003601f168201915b5050505050815250905090565b60015f9054906101000a900473ffffffffffffffffffffffffffffffffffffffff1681565b5f5481565b60405180608001604052805f73ffffffffffffffffffffffffffffffffffffffff1681526020015f81526020015f73ffffffffffffffffffffffffffffffffffffffff168152602001606081525090565b5f81519050919050565b5f82825260208201905092915050565b8281835e5f83830152505050565b5f601f19601f8301169050919050565b5f610313826102d1565b61031d81856102db565b935061032d8185602086016102eb565b610336816102f9565b840191505092915050565b5f6020820190508181035f8301526103598184610309565b905092915050565b5f73ffffffffffffffffffffffffffffffffffffffff82169050919050565b5f61038a82610361565b9050919050565b61039a81610380565b82525050565b5f819050919050565b6103b2816103a0565b82525050565b5f82825260208201905092915050565b5f6103d2826102d1565b6103dc81856103b8565b93506103ec8185602086016102eb565b6103f5816102f9565b840191505092915050565b5f608083015f8301516104155f860182610391565b50602083015161042860208601826103a9565b50604083015161043b6040860182610391565b506060830151848203606086015261045382826103c8565b9150508091505092915050565b5f6020820190508181035f8301526104788184610400565b905092915050565b61048981610380565b82525050565b5f6020820190506104a25f830184610480565b92915050565b6104b1816103a0565b82525050565b5f6020820190506104ca5f8301846104a8565b92915050565b7f4e487b71000000000000000000000000000000000000000000000000000000005f52602260045260245ffd5b5f600282049050600182168061051457607f821691505b602082108103610527576105266104d0565b5b5091905056fea26469706673582212207418dd269d980aa52b9a4186fbe4611b2105599d1ba862be99f56993223c92b964736f6c634300081c0033a2646970667358221220e0d130636b7f13df316ba0da5f56eb3095c2015b6a413a6b01c36abd21ba0db764736f6c634300081c0033","linkReferences":{}},"methodIdentifiers":{"Hashtag_list(uint256)":"65ae0161","Txt_Hashtag_map(address)":"edb79ea7","Txt_list(uint256)":"76105b26","UserInfoList(uint256)":"293a0562","UserInfoListLength()":"7436fd4e","get_Hashtag_N(uint256)":"568a3d9e","get_Hashtag_list_length()":"4635cad2","get_Hashtag_user_N(address,uint256)":"8e62a3b3","get_Hashtag_user_length(address)":"d6e129e4","get_Txt_N(uint256)":"a4a26c10","get_Txt_list_length()":"a8a48879","get_Txt_user_N(address,uint256)":"9112bf09","get_Txt_user_length(address)":"156568a0","get_first_Hashtag_N(uint256,uint256)":"52296a51","get_first_Txt_N(uint256,uint256)":"cc182932","get_last_Hashtag_N(uint256,uint256)":"6bcc41ab","get_last_Hashtag_user_N(address,uint256,uint256)":"88ed6cf4","get_last_Txt_Hashtag_map_N(address,uint256,uint256)":"5cfad961","get_last_Txt_N(uint256,uint256)":"e7b4be9b","get_last_Txt_user_N(address,uint256,uint256)":"a870061e","get_length_Txt_Hashtag_map(address)":"1b29ee1a","get_unique_map_Hashtag(string)":"bd72aa2c","new_Hashtag(string)":"fef9bbef","new_Txt(string,address)":"b08e177c","user_map(address)":"dc33b004"},"id":0}