{"abi":[{"type":"constructor","inputs":[{"name":"_tag","type":"string","internalType":"string"}],"stateMutability":"nonpayable"},{"type":"function","name":"getAll","inputs":[],"outputs":[{"name":"","type":"tuple","internalType":"struct Hashtag_contract.HashtagData","components":[{"name":"self","type":"address","internalType":"address"},{"name":"timestamp","type":"uint256","internalType":"uint256"},{"name":"sender","type":"address","internalType":"address"},{"name":"tag","type":"string","internalType":"string"}]}],"stateMutability":"view"},{"type":"function","name":"sender","inputs":[],"outputs":[{"name":"","type":"address","internalType":"address"}],"stateMutability":"view"},{"type":"function","name":"tag","inputs":[],"outputs":[{"name":"","type":"string","internalType":"string"}],"stateMutability":"view"},{"type":"function","name":"timestamp","inputs":[],"outputs":[{"name":"","type":"uint256","internalType":"uint256"}],"stateMutability":"view"}],"bytecode":{"object":"0x608060405234801561000f575f5ffd5b50604051610a70380380610a70833981810160405281019061003191906101da565b3260015f6101000a81548173ffffffffffffffffffffffffffffffffffffffff021916908373ffffffffffffffffffffffffffffffffffffffff160217905550425f8190555080600290816100869190610431565b5050610500565b5f604051905090565b5f5ffd5b5f5ffd5b5f5ffd5b5f5ffd5b5f601f19601f8301169050919050565b7f4e487b71000000000000000000000000000000000000000000000000000000005f52604160045260245ffd5b6100ec826100a6565b810181811067ffffffffffffffff8211171561010b5761010a6100b6565b5b80604052505050565b5f61011d61008d565b905061012982826100e3565b919050565b5f67ffffffffffffffff821115610148576101476100b6565b5b610151826100a6565b9050602081019050919050565b8281835e5f83830152505050565b5f61017e6101798461012e565b610114565b90508281526020810184848401111561019a576101996100a2565b5b6101a584828561015e565b509392505050565b5f82601f8301126101c1576101c061009e565b5b81516101d184826020860161016c565b91505092915050565b5f602082840312156101ef576101ee610096565b5b5f82015167ffffffffffffffff81111561020c5761020b61009a565b5b610218848285016101ad565b91505092915050565b5f81519050919050565b7f4e487b71000000000000000000000000000000000000000000000000000000005f52602260045260245ffd5b5f600282049050600182168061026f57607f821691505b6020821081036102825761028161022b565b5b50919050565b5f819050815f5260205f209050919050565b5f6020601f8301049050919050565b5f82821b905092915050565b5f600883026102e47fffffffffffffffffffffffffffffffffffffffffffffffffffffffffffffffff826102a9565b6102ee86836102a9565b95508019841693508086168417925050509392505050565b5f819050919050565b5f819050919050565b5f61033261032d61032884610306565b61030f565b610306565b9050919050565b5f819050919050565b61034b83610318565b61035f61035782610339565b8484546102b5565b825550505050565b5f5f905090565b610376610367565b610381818484610342565b505050565b5b818110156103a4576103995f8261036e565b600181019050610387565b5050565b601f8211156103e9576103ba81610288565b6103c38461029a565b810160208510156103d2578190505b6103e66103de8561029a565b830182610386565b50505b505050565b5f82821c905092915050565b5f6104095f19846008026103ee565b1980831691505092915050565b5f61042183836103fa565b9150826002028217905092915050565b61043a82610221565b67ffffffffffffffff811115610453576104526100b6565b5b61045d8254610258565b6104688282856103a8565b5f60209050601f831160018114610499575f8415610487578287015190505b6104918582610416565b8655506104f8565b601f1984166104a786610288565b5f5b828110156104ce578489015182556001820191506020850194506020810190506104a9565b868310156104eb57848901516104e7601f8916826103fa565b8355505b6001600288020188555050505b505050505050565b6105638061050d5f395ff3fe608060405234801561000f575f5ffd5b506004361061004a575f3560e01c806351f910661461004e57806353ed51431461006c57806367e404ce1461008a578063b80777ea146100a8575b5f5ffd5b6100566100c6565b6040516100639190610341565b60405180910390f35b610074610152565b6040516100819190610460565b60405180910390f35b610092610256565b60405161009f919061048f565b60405180910390f35b6100b061027b565b6040516100bd91906104b7565b60405180910390f35b600280546100d3906104fd565b80601f01602080910402602001604051908101604052809291908181526020018280546100ff906104fd565b801561014a5780601f106101215761010080835404028352916020019161014a565b820191905f5260205f20905b81548152906001019060200180831161012d57829003601f168201915b505050505081565b61015a610280565b60405180608001604052803073ffffffffffffffffffffffffffffffffffffffff1681526020015f54815260200160015f9054906101000a900473ffffffffffffffffffffffffffffffffffffffff1673ffffffffffffffffffffffffffffffffffffffff168152602001600280546101d2906104fd565b80601f01602080910402602001604051908101604052809291908181526020018280546101fe906104fd565b80156102495780601f1061022057610100808354040283529160200191610249565b820191905f5260205f20905b81548152906001019060200180831161022c57829003601f168201915b5050505050815250905090565b60015f9054906101000a900473ffffffffffffffffffffffffffffffffffffffff1681565b5f5481565b60405180608001604052805f73ffffffffffffffffffffffffffffffffffffffff1681526020015f81526020015f73ffffffffffffffffffffffffffffffffffffffff168152602001606081525090565b5f81519050919050565b5f82825260208201905092915050565b8281835e5f83830152505050565b5f601f19601f8301169050919050565b5f610313826102d1565b61031d81856102db565b935061032d8185602086016102eb565b610336816102f9565b840191505092915050565b5f6020820190508181035f8301526103598184610309565b905092915050565b5f73ffffffffffffffffffffffffffffffffffffffff82169050919050565b5f61038a82610361565b9050919050565b61039a81610380565b82525050565b5f819050919050565b6103b2816103a0565b82525050565b5f82825260208201905092915050565b5f6103d2826102d1565b6103dc81856103b8565b93506103ec8185602086016102eb565b6103f5816102f9565b840191505092915050565b5f608083015f8301516104155f860182610391565b50602083015161042860208601826103a9565b50604083015161043b6040860182610391565b506060830151848203606086015261045382826103c8565b9150508091505092915050565b5f6020820190508181035f8301526104788184610400565b905092915050565b61048981610380565b82525050565b5f6020820190506104a25f830184610480565b92915050565b6104b1816103a0565b82525050565b5f6020820190506104ca5f8301846104a8565b92915050565b7f4e487b71000000000000000000000000000000000000000000000000000000005f52602260045260245ffd5b5f600282049050600182168061051457607f821691505b602082108103610527576105266104d0565b5b5091905056fea26469706673582212207418dd269d980aa52b9a4186fbe4611b2105599d1ba862be99f56993223c92b964736f6c634300081c0033","linkReferences":{}},"methodIdentifiers":{"getAll()":"53ed5143","sender()":"67e404ce","tag()":"51f91066","timestamp()":"b80777ea"},"id":0}