{"abi":[{"type":"constructor","inputs":[{"name":"_message","type":"string","internalType":"string"},{"name":"_Hashtag","type":"address","internalType":"address"}],"stateMutability":"nonpayable"},{"type":"function","name":"Hashtag","inputs":[],"outputs":[{"name":"","type":"address","internalType":"address"}],"stateMutability":"view"},{"type":"function","name":"getAll","inputs":[],"outputs":[{"name":"","type":"tuple","internalType":"struct Txt_contract.TxtData","components":[{"name":"self","type":"address","internalType":"address"},{"name":"timestamp","type":"uint256","internalType":"uint256"},{"name":"sender","type":"address","internalType":"address"},{"name":"message","type":"string","internalType":"string"},{"name":"Hashtag","type":"address","internalType":"address"}]}],"stateMutability":"view"},{"type":"function","name":"message","inputs":[],"outputs":[{"name":"","type":"string","internalType":"string"}],"stateMutability":"view"},{"type":"function","name":"sender","inputs":[],"outputs":[{"name":"","type":"address","internalType":"address"}],"stateMutability":"view"},{"type":"function","name":"stake","inputs":[],"outputs":[{"name":"","type":"uint256","internalType":"uint256"}],"stateMutability":"view"},{"type":"function","name":"timestamp","inputs":[],"outputs":[{"name":"","type":"uint256","internalType":"uint256"}],"stateMutability":"view"}],"bytecode":{"object":"0x608060405234801561000f575f5ffd5b50604051610c07380380610c0783398181016040528101906100319190610275565b3260015f6101000a81548173ffffffffffffffffffffffffffffffffffffffff021916908373ffffffffffffffffffffffffffffffffffffffff160217905550425f81905550816002908161008691906104df565b508060045f6101000a81548173ffffffffffffffffffffffffffffffffffffffff021916908373ffffffffffffffffffffffffffffffffffffffff16021790555050506105ae565b5f604051905090565b5f5ffd5b5f5ffd5b5f5ffd5b5f5ffd5b5f601f19601f8301169050919050565b7f4e487b71000000000000000000000000000000000000000000000000000000005f52604160045260245ffd5b61012d826100e7565b810181811067ffffffffffffffff8211171561014c5761014b6100f7565b5b80604052505050565b5f61015e6100ce565b905061016a8282610124565b919050565b5f67ffffffffffffffff821115610189576101886100f7565b5b610192826100e7565b9050602081019050919050565b8281835e5f83830152505050565b5f6101bf6101ba8461016f565b610155565b9050828152602081018484840111156101db576101da6100e3565b5b6101e684828561019f565b509392505050565b5f82601f830112610202576102016100df565b5b81516102128482602086016101ad565b91505092915050565b5f73ffffffffffffffffffffffffffffffffffffffff82169050919050565b5f6102448261021b565b9050919050565b6102548161023a565b811461025e575f5ffd5b50565b5f8151905061026f8161024b565b92915050565b5f5f6040838503121561028b5761028a6100d7565b5b5f83015167ffffffffffffffff8111156102a8576102a76100db565b5b6102b4858286016101ee565b92505060206102c585828601610261565b9150509250929050565b5f81519050919050565b7f4e487b71000000000000000000000000000000000000000000000000000000005f52602260045260245ffd5b5f600282049050600182168061031d57607f821691505b6020821081036103305761032f6102d9565b5b50919050565b5f819050815f5260205f209050919050565b5f6020601f8301049050919050565b5f82821b905092915050565b5f600883026103927fffffffffffffffffffffffffffffffffffffffffffffffffffffffffffffffff82610357565b61039c8683610357565b95508019841693508086168417925050509392505050565b5f819050919050565b5f819050919050565b5f6103e06103db6103d6846103b4565b6103bd565b6103b4565b9050919050565b5f819050919050565b6103f9836103c6565b61040d610405826103e7565b848454610363565b825550505050565b5f5f905090565b610424610415565b61042f8184846103f0565b505050565b5b81811015610452576104475f8261041c565b600181019050610435565b5050565b601f8211156104975761046881610336565b61047184610348565b81016020851015610480578190505b61049461048c85610348565b830182610434565b50505b505050565b5f82821c905092915050565b5f6104b75f198460080261049c565b1980831691505092915050565b5f6104cf83836104a8565b9150826002028217905092915050565b6104e8826102cf565b67ffffffffffffffff811115610501576105006100f7565b5b61050b8254610306565b610516828285610456565b5f60209050601f831160018114610547575f8415610535578287015190505b61053f85826104c4565b8655506105a6565b601f19841661055586610336565b5f5b8281101561057c57848901518255600182019150602085019450602081019050610557565b868310156105995784890151610595601f8916826104a8565b8355505b6001600288020188555050505b505050505050565b61064c806105bb5f395ff3fe608060405234801561000f575f5ffd5b5060043610610060575f3560e01c80633a4b66f1146100645780634c30e4761461008257806353ed5143146100a057806367e404ce146100be578063b80777ea146100dc578063e21f37ce146100fa575b5f5ffd5b61006c610118565b60405161007991906103bf565b60405180910390f35b61008a61011e565b6040516100979190610417565b60405180910390f35b6100a8610143565b6040516100b59190610531565b60405180910390f35b6100c6610284565b6040516100d39190610417565b60405180910390f35b6100e46102a9565b6040516100f191906103bf565b60405180910390f35b6101026102ae565b60405161010f9190610599565b60405180910390f35b60035481565b60045f9054906101000a900473ffffffffffffffffffffffffffffffffffffffff1681565b61014b61033a565b6040518060a001604052803073ffffffffffffffffffffffffffffffffffffffff1681526020015f54815260200160015f9054906101000a900473ffffffffffffffffffffffffffffffffffffffff1673ffffffffffffffffffffffffffffffffffffffff168152602001600280546101c3906105e6565b80601f01602080910402602001604051908101604052809291908181526020018280546101ef906105e6565b801561023a5780601f106102115761010080835404028352916020019161023a565b820191905f5260205f20905b81548152906001019060200180831161021d57829003601f168201915b5050505050815260200160045f9054906101000a900473ffffffffffffffffffffffffffffffffffffffff1673ffffffffffffffffffffffffffffffffffffffff16815250905090565b60015f9054906101000a900473ffffffffffffffffffffffffffffffffffffffff1681565b5f5481565b600280546102bb906105e6565b80601f01602080910402602001604051908101604052809291908181526020018280546102e7906105e6565b80156103325780601f1061030957610100808354040283529160200191610332565b820191905f5260205f20905b81548152906001019060200180831161031557829003601f168201915b505050505081565b6040518060a001604052805f73ffffffffffffffffffffffffffffffffffffffff1681526020015f81526020015f73ffffffffffffffffffffffffffffffffffffffff168152602001606081526020015f73ffffffffffffffffffffffffffffffffffffffff1681525090565b5f819050919050565b6103b9816103a7565b82525050565b5f6020820190506103d25f8301846103b0565b92915050565b5f73ffffffffffffffffffffffffffffffffffffffff82169050919050565b5f610401826103d8565b9050919050565b610411816103f7565b82525050565b5f60208201905061042a5f830184610408565b92915050565b610439816103f7565b82525050565b610448816103a7565b82525050565b5f81519050919050565b5f82825260208201905092915050565b8281835e5f83830152505050565b5f601f19601f8301169050919050565b5f6104908261044e565b61049a8185610458565b93506104aa818560208601610468565b6104b381610476565b840191505092915050565b5f60a083015f8301516104d35f860182610430565b5060208301516104e6602086018261043f565b5060408301516104f96040860182610430565b50606083015184820360608601526105118282610486565b91505060808301516105266080860182610430565b508091505092915050565b5f6020820190508181035f83015261054981846104be565b905092915050565b5f82825260208201905092915050565b5f61056b8261044e565b6105758185610551565b9350610585818560208601610468565b61058e81610476565b840191505092915050565b5f6020820190508181035f8301526105b18184610561565b905092915050565b7f4e487b71000000000000000000000000000000000000000000000000000000005f52602260045260245ffd5b5f60028204905060018216806105fd57607f821691505b6020821081036106105761060f6105b9565b5b5091905056fea264697066735822122073bc8a5a1f26737757fc51e36cbf0feb50cbec77ab137770d6e135a4968b0ebf64736f6c634300081c0033","linkReferences":{}},"methodIdentifiers":{"Hashtag()":"4c30e476","getAll()":"53ed5143","message()":"e21f37ce","sender()":"67e404ce","stake()":"3a4b66f1","timestamp()":"b80777ea"},"id":0}